{
  "_format": "hh-sol-artifact-1",
  "contractName": "EventHubV1",
  "sourceName": "contracts/EventHubV1.sol",
  "abi": [
    {
      "inputs": [
        {
          "internalType": "uint64",
          "name": "subscriptionId",
          "type": "uint64"
        }
      ],
      "stateMutability": "nonpayable",
      "type": "constructor"
    },
    {
      "inputs": [
        {
          "internalType": "address",
          "name": "have",
          "type": "address"
        },
        {
          "internalType": "address",
          "name": "want",
          "type": "address"
        }
      ],
      "name": "OnlyCoordinatorCanFulfill",
      "type": "error"
    },
    {
      "anonymous": false,
      "inputs": [
        {
          "indexed": false,
          "internalType": "uint256",
          "name": "eventID",
          "type": "uint256"
        },
        {
          "indexed": false,
          "internalType": "address",
          "name": "attendeeAddress",
          "type": "address"
        }
      ],
      "name": "ConfirmedAttendee",
      "type": "event"
    },
    {
      "anonymous": false,
      "inputs": [
        {
          "indexed": false,
          "internalType": "uint256",
          "name": "eventID",
          "type": "uint256"
        }
      ],
      "name": "DepositsPaidOut",
      "type": "event"
    },
    {
      "anonymous": false,
      "inputs": [
        {
          "indexed": false,
          "internalType": "uint256",
          "name": "eventID",
          "type": "uint256"
        },
        {
          "indexed": false,
          "internalType": "address",
          "name": "creatorAddress",
          "type": "address"
        },
        {
          "indexed": false,
          "internalType": "uint256",
          "name": "eventTimestamp",
          "type": "uint256"
        },
        {
          "indexed": false,
          "internalType": "uint256",
          "name": "maxCapacity",
          "type": "uint256"
        },
        {
          "indexed": false,
          "internalType": "uint256",
          "name": "deposit",
          "type": "uint256"
        },
        {
          "indexed": false,
          "internalType": "string",
          "name": "imagePath",
          "type": "string"
        }
      ],
      "name": "NewEventCreated",
      "type": "event"
    },
    {
      "anonymous": false,
      "inputs": [
        {
          "indexed": false,
          "internalType": "uint256",
          "name": "eventID",
          "type": "uint256"
        },
        {
          "indexed": false,
          "internalType": "address",
          "name": "attendeeAddress",
          "type": "address"
        }
      ],
      "name": "NewRSVP",
      "type": "event"
    },
    {
      "anonymous": false,
      "inputs": [
        {
          "indexed": true,
          "internalType": "address",
          "name": "from",
          "type": "address"
        },
        {
          "indexed": true,
          "internalType": "address",
          "name": "to",
          "type": "address"
        }
      ],
      "name": "OwnershipTransferRequested",
      "type": "event"
    },
    {
      "anonymous": false,
      "inputs": [
        {
          "indexed": true,
          "internalType": "address",
          "name": "from",
          "type": "address"
        },
        {
          "indexed": true,
          "internalType": "address",
          "name": "to",
          "type": "address"
        }
      ],
      "name": "OwnershipTransferred",
      "type": "event"
    },
    {
      "anonymous": false,
      "inputs": [
        {
          "indexed": false,
          "internalType": "string[]",
          "name": "phones",
          "type": "string[]"
        }
      ],
      "name": "Phones",
      "type": "event"
    },
    {
      "anonymous": false,
      "inputs": [
        {
          "indexed": false,
          "internalType": "uint256",
          "name": "requestId",
          "type": "uint256"
        },
        {
          "indexed": false,
          "internalType": "uint256[]",
          "name": "randomWords",
          "type": "uint256[]"
        }
      ],
      "name": "RequestFulfilled",
      "type": "event"
    },
    {
      "anonymous": false,
      "inputs": [
        {
          "indexed": false,
          "internalType": "uint256",
          "name": "requestId",
          "type": "uint256"
        },
        {
          "indexed": false,
          "internalType": "uint32",
          "name": "numWords",
          "type": "uint32"
        }
      ],
      "name": "RequestSent",
      "type": "event"
    },
    {
      "inputs": [],
      "name": "acceptOwnership",
      "outputs": [],
      "stateMutability": "nonpayable",
      "type": "function"
    },
    {
      "inputs": [
        {
          "internalType": "bytes",
          "name": "",
          "type": "bytes"
        }
      ],
      "name": "checkUpkeep",
      "outputs": [
        {
          "internalType": "bool",
          "name": "upkeepNeeded",
          "type": "bool"
        },
        {
          "internalType": "bytes",
          "name": "",
          "type": "bytes"
        }
      ],
      "stateMutability": "view",
      "type": "function"
    },
    {
      "inputs": [],
      "name": "confirmAllAttendees",
      "outputs": [],
      "stateMutability": "nonpayable",
      "type": "function"
    },
    {
      "inputs": [
        {
          "internalType": "uint256",
          "name": "eventId",
          "type": "uint256"
        },
        {
          "internalType": "address",
          "name": "attendee",
          "type": "address"
        }
      ],
      "name": "confirmAttendee",
      "outputs": [],
      "stateMutability": "nonpayable",
      "type": "function"
    },
    {
      "inputs": [
        {
          "internalType": "string",
          "name": "title",
          "type": "string"
        },
        {
          "internalType": "uint256",
          "name": "eventTimestamp",
          "type": "uint256"
        },
        {
          "internalType": "uint256",
          "name": "deposit",
          "type": "uint256"
        },
        {
          "internalType": "uint256",
          "name": "maxCapacity",
          "type": "uint256"
        },
        {
          "internalType": "string",
          "name": "imagePath",
          "type": "string"
        },
        {
          "internalType": "string",
          "name": "phone",
          "type": "string"
        }
      ],
      "name": "createNewEvent",
      "outputs": [
        {
          "internalType": "uint256",
          "name": "",
          "type": "uint256"
        }
      ],
      "stateMutability": "payable",
      "type": "function"
    },
    {
      "inputs": [
        {
          "internalType": "uint256",
          "name": "eventId",
          "type": "uint256"
        }
      ],
      "name": "createNewRSVP",
      "outputs": [],
      "stateMutability": "payable",
      "type": "function"
    },
    {
      "inputs": [],
      "name": "getContractBalance",
      "outputs": [
        {
          "internalType": "uint256",
          "name": "",
          "type": "uint256"
        }
      ],
      "stateMutability": "view",
      "type": "function"
    },
    {
      "inputs": [
        {
          "internalType": "address",
          "name": "creator",
          "type": "address"
        }
      ],
      "name": "getCreatorEvents",
      "outputs": [
        {
          "internalType": "uint256[]",
          "name": "createdEvents",
          "type": "uint256[]"
        }
      ],
      "stateMutability": "view",
      "type": "function"
    },
    {
      "inputs": [
        {
          "internalType": "uint256",
          "name": "eventID",
          "type": "uint256"
        }
      ],
      "name": "getEvent",
      "outputs": [
        {
          "internalType": "string",
          "name": "title",
          "type": "string"
        },
        {
          "internalType": "string",
          "name": "imagePath",
          "type": "string"
        },
        {
          "internalType": "address",
          "name": "eventOwner",
          "type": "address"
        },
        {
          "internalType": "uint256",
          "name": "eventTimestamp",
          "type": "uint256"
        },
        {
          "internalType": "uint256",
          "name": "maxCapacity",
          "type": "uint256"
        },
        {
          "internalType": "uint256",
          "name": "deposit",
          "type": "uint256"
        },
        {
          "internalType": "address[]",
          "name": "confirmedRSVPs",
          "type": "address[]"
        }
      ],
      "stateMutability": "view",
      "type": "function"
    },
    {
      "inputs": [
        {
          "internalType": "uint256",
          "name": "i",
          "type": "uint256"
        }
      ],
      "name": "getEventId",
      "outputs": [
        {
          "internalType": "uint256",
          "name": "",
          "type": "uint256"
        }
      ],
      "stateMutability": "view",
      "type": "function"
    },
    {
      "inputs": [],
      "name": "getEventLength",
      "outputs": [
        {
          "internalType": "uint256",
          "name": "",
          "type": "uint256"
        }
      ],
      "stateMutability": "view",
      "type": "function"
    },
    {
      "inputs": [
        {
          "internalType": "uint256",
          "name": "_requestId",
          "type": "uint256"
        }
      ],
      "name": "getRequestStatus",
      "outputs": [
        {
          "internalType": "bool",
          "name": "fulfilled",
          "type": "bool"
        },
        {
          "internalType": "uint256[]",
          "name": "randomWords",
          "type": "uint256[]"
        }
      ],
      "stateMutability": "view",
      "type": "function"
    },
    {
      "inputs": [
        {
          "internalType": "address",
          "name": "attendee",
          "type": "address"
        }
      ],
      "name": "getUserRSVPs",
      "outputs": [
        {
          "internalType": "uint256[]",
          "name": "RSVPs",
          "type": "uint256[]"
        }
      ],
      "stateMutability": "view",
      "type": "function"
    },
    {
      "inputs": [
        {
          "internalType": "uint256",
          "name": "",
          "type": "uint256"
        }
      ],
      "name": "idToEvent",
      "outputs": [
        {
          "internalType": "string",
          "name": "title",
          "type": "string"
        },
        {
          "internalType": "string",
          "name": "imagePath",
          "type": "string"
        },
        {
          "internalType": "address",
          "name": "eventOwner",
          "type": "address"
        },
        {
          "internalType": "uint256",
          "name": "eventTimestamp",
          "type": "uint256"
        },
        {
          "internalType": "uint256",
          "name": "deposit",
          "type": "uint256"
        },
        {
          "internalType": "uint256",
          "name": "maxCapacity",
          "type": "uint256"
        },
        {
          "internalType": "bool",
          "name": "paidOut",
          "type": "bool"
        },
        {
          "internalType": "string",
          "name": "phone",
          "type": "string"
        }
      ],
      "stateMutability": "view",
      "type": "function"
    },
    {
      "inputs": [],
      "name": "lastRequestId",
      "outputs": [
        {
          "internalType": "uint256",
          "name": "",
          "type": "uint256"
        }
      ],
      "stateMutability": "view",
      "type": "function"
    },
    {
      "inputs": [],
      "name": "owner",
      "outputs": [
        {
          "internalType": "address",
          "name": "",
          "type": "address"
        }
      ],
      "stateMutability": "view",
      "type": "function"
    },
    {
      "inputs": [
        {
          "internalType": "bytes",
          "name": "",
          "type": "bytes"
        }
      ],
      "name": "performUpkeep",
      "outputs": [],
      "stateMutability": "nonpayable",
      "type": "function"
    },
    {
      "inputs": [],
      "name": "randomWordsNum",
      "outputs": [
        {
          "internalType": "uint256",
          "name": "",
          "type": "uint256"
        }
      ],
      "stateMutability": "view",
      "type": "function"
    },
    {
      "inputs": [
        {
          "internalType": "uint256",
          "name": "requestId",
          "type": "uint256"
        },
        {
          "internalType": "uint256[]",
          "name": "randomWords",
          "type": "uint256[]"
        }
      ],
      "name": "rawFulfillRandomWords",
      "outputs": [],
      "stateMutability": "nonpayable",
      "type": "function"
    },
    {
      "inputs": [],
      "name": "recentWinner",
      "outputs": [
        {
          "internalType": "address",
          "name": "",
          "type": "address"
        }
      ],
      "stateMutability": "view",
      "type": "function"
    },
    {
      "inputs": [
        {
          "internalType": "uint256",
          "name": "",
          "type": "uint256"
        }
      ],
      "name": "requestIds",
      "outputs": [
        {
          "internalType": "uint256",
          "name": "",
          "type": "uint256"
        }
      ],
      "stateMutability": "view",
      "type": "function"
    },
    {
      "inputs": [],
      "name": "requestRandomWords",
      "outputs": [
        {
          "internalType": "uint256",
          "name": "requestId",
          "type": "uint256"
        }
      ],
      "stateMutability": "nonpayable",
      "type": "function"
    },
    {
      "inputs": [
        {
          "internalType": "uint256",
          "name": "",
          "type": "uint256"
        }
      ],
      "name": "s_requests",
      "outputs": [
        {
          "internalType": "bool",
          "name": "fulfilled",
          "type": "bool"
        },
        {
          "internalType": "bool",
          "name": "exists",
          "type": "bool"
        }
      ],
      "stateMutability": "view",
      "type": "function"
    },
    {
      "inputs": [],
      "name": "sendUnclaimedFeeToRandomConfirmedAttendee",
      "outputs": [
        {
          "internalType": "address",
          "name": "",
          "type": "address"
        }
      ],
      "stateMutability": "nonpayable",
      "type": "function"
    },
    {
      "inputs": [],
      "name": "totalEvents",
      "outputs": [
        {
          "internalType": "uint256",
          "name": "",
          "type": "uint256"
        }
      ],
      "stateMutability": "view",
      "type": "function"
    },
    {
      "inputs": [
        {
          "internalType": "address",
          "name": "to",
          "type": "address"
        }
      ],
      "name": "transferOwnership",
      "outputs": [],
      "stateMutability": "nonpayable",
      "type": "function"
    },
    {
      "inputs": [
        {
          "internalType": "uint256",
          "name": "eventId",
          "type": "uint256"
        }
      ],
      "name": "withdrawUnclaimedDeposits",
      "outputs": [],
      "stateMutability": "nonpayable",
      "type": "function"
    }
  ],
  "bytecode": "0x60a06040527f474e34a077df58807dbe9c96d3c009b23b3c6d0cce433e59bbf5b34f823bc56c60001b600b55620186a0600c60006101000a81548163ffffffff021916908363ffffffff1602179055506003600c60046101000a81548161ffff021916908361ffff1602179055506001600c60066101000a81548163ffffffff021916908363ffffffff1602179055503480156200009c57600080fd5b50604051620053dd380380620053dd8339818101604052810190620000c291906200040a565b33806000737a1bac17ccc5b313516c5e16fb24f7659aa5ebed8073ffffffffffffffffffffffffffffffffffffffff1660808173ffffffffffffffffffffffffffffffffffffffff168152505050600073ffffffffffffffffffffffffffffffffffffffff168273ffffffffffffffffffffffffffffffffffffffff160362000182576040517f08c379a000000000000000000000000000000000000000000000000000000000815260040162000179906200049d565b60405180910390fd5b816000806101000a81548173ffffffffffffffffffffffffffffffffffffffff021916908373ffffffffffffffffffffffffffffffffffffffff160217905550600073ffffffffffffffffffffffffffffffffffffffff168173ffffffffffffffffffffffffffffffffffffffff1614620002095762000208816200029160201b60201c565b5b505050737a1bac17ccc5b313516c5e16fb24f7659aa5ebed600860006101000a81548173ffffffffffffffffffffffffffffffffffffffff021916908373ffffffffffffffffffffffffffffffffffffffff16021790555080600860146101000a81548167ffffffffffffffff021916908367ffffffffffffffff1602179055505062000531565b3373ffffffffffffffffffffffffffffffffffffffff168173ffffffffffffffffffffffffffffffffffffffff160362000302576040517f08c379a0000000000000000000000000000000000000000000000000000000008152600401620002f9906200050f565b60405180910390fd5b80600160006101000a81548173ffffffffffffffffffffffffffffffffffffffff021916908373ffffffffffffffffffffffffffffffffffffffff1602179055508073ffffffffffffffffffffffffffffffffffffffff1660008054906101000a900473ffffffffffffffffffffffffffffffffffffffff1673ffffffffffffffffffffffffffffffffffffffff167fed8889f560326eb138920d842192f0eb3dd22b4f139c87a2c57538e05bae127860405160405180910390a350565b600080fd5b600067ffffffffffffffff82169050919050565b620003e481620003c5565b8114620003f057600080fd5b50565b6000815190506200040481620003d9565b92915050565b600060208284031215620004235762000422620003c0565b5b60006200043384828501620003f3565b91505092915050565b600082825260208201905092915050565b7f43616e6e6f7420736574206f776e657220746f207a65726f0000000000000000600082015250565b6000620004856018836200043c565b915062000492826200044d565b602082019050919050565b60006020820190508181036000830152620004b88162000476565b9050919050565b7f43616e6e6f74207472616e7366657220746f2073656c66000000000000000000600082015250565b6000620004f76017836200043c565b91506200050482620004bf565b602082019050919050565b600060208201905081810360008301526200052a81620004e8565b9050919050565b608051614e896200055460003960008181610d0a0152610d5e0152614e896000f3fe60806040526004361061019c5760003560e01c80638796ba8c116100ec578063d46bae4b1161008a578063e9dd66bf11610064578063e9dd66bf146105e4578063f2fde38b1461060f578063f82678f214610638578063fc2a88c3146106755761019c565b8063d46bae4b14610537578063d8a4676f1461057b578063e0c86289146105b95761019c565b8063a168fa89116100c6578063a168fa8914610475578063ada06a3b146104b3578063ba870686146104cf578063c3be559b146104fa5761019c565b80638796ba8c146103e25780638da5cb5b1461041f5780639a8ff87c1461044a5761019c565b80634f8c70cf116101595780636d1884e0116101335780636d1884e01461031f5780636e04ff0d146103625780636f9fb98a146103a057806379ba5097146103cb5761019c565b80634f8c70cf146102a05780635c98dfa1146102cb5780636acb5dd3146102f65761019c565b8063127d17ab146101a15780631b302c4f146101ca5780631fe543e314610207578063289b9b8b146102305780634585e33b146102605780634bbbeb4914610289575b600080fd5b3480156101ad57600080fd5b506101c860048036038101906101c3919061355c565b6106a0565b005b3480156101d657600080fd5b506101f160048036038101906101ec91906135e7565b610c71565b6040516101fe91906136d2565b60405180910390f35b34801561021357600080fd5b5061022e6004803603810190610229919061384d565b610d08565b005b61024a60048036038101906102459190613904565b610dc8565b6040516102579190613a02565b60405180910390f35b34801561026c57600080fd5b5061028760048036038101906102829190613a73565b611114565b005b34801561029557600080fd5b5061029e611257565b005b3480156102ac57600080fd5b506102b56114a6565b6040516102c29190613acf565b60405180910390f35b3480156102d757600080fd5b506102e06114cc565b6040516102ed9190613a02565b60405180910390f35b34801561030257600080fd5b5061031d60048036038101906103189190613aea565b6114d9565b005b34801561032b57600080fd5b506103466004803603810190610341919061355c565b61180a565b6040516103599796959493929190613c67565b60405180910390f35b34801561036e57600080fd5b5061038960048036038101906103849190613a73565b611a8c565b604051610397929190613d5b565b60405180910390f35b3480156103ac57600080fd5b506103b5611ae8565b6040516103c29190613a02565b60405180910390f35b3480156103d757600080fd5b506103e0611af0565b005b3480156103ee57600080fd5b506104096004803603810190610404919061355c565b611c85565b6040516104169190613a02565b60405180910390f35b34801561042b57600080fd5b50610434611ca9565b6040516104419190613acf565b60405180910390f35b34801561045657600080fd5b5061045f611cd2565b60405161046c9190613a02565b60405180910390f35b34801561048157600080fd5b5061049c6004803603810190610497919061355c565b611cd8565b6040516104aa929190613d8b565b60405180910390f35b6104cd60048036038101906104c8919061355c565b611d16565b005b3480156104db57600080fd5b506104e4611fe9565b6040516104f19190613a02565b60405180910390f35b34801561050657600080fd5b50610521600480360381019061051c919061355c565b611fef565b60405161052e9190613a02565b60405180910390f35b34801561054357600080fd5b5061055e6004803603810190610559919061355c565b612017565b604051610572989796959493929190613db4565b60405180910390f35b34801561058757600080fd5b506105a2600480360381019061059d919061355c565b612224565b6040516105b0929190613e47565b60405180910390f35b3480156105c557600080fd5b506105ce61234f565b6040516105db9190613a02565b60405180910390f35b3480156105f057600080fd5b506105f96125a8565b6040516106069190613acf565b60405180910390f35b34801561061b57600080fd5b50610636600480360381019061063191906135e7565b612cbc565b005b34801561064457600080fd5b5061065f600480360381019061065a91906135e7565b612cd0565b60405161066c91906136d2565b60405180910390f35b34801561068157600080fd5b5061068a612d67565b6040516106979190613a02565b60405180910390f35b600060046000838152602001908152602001600020604051806101400160405290816000820180546106d190613ea6565b80601f01602080910402602001604051908101604052809291908181526020018280546106fd90613ea6565b801561074a5780601f1061071f5761010080835404028352916020019161074a565b820191906000526020600020905b81548152906001019060200180831161072d57829003601f168201915b5050505050815260200160018201805461076390613ea6565b80601f016020809104026020016040519081016040528092919081815260200182805461078f90613ea6565b80156107dc5780601f106107b1576101008083540402835291602001916107dc565b820191906000526020600020905b8154815290600101906020018083116107bf57829003601f168201915b505050505081526020016002820160009054906101000a900473ffffffffffffffffffffffffffffffffffffffff1673ffffffffffffffffffffffffffffffffffffffff1673ffffffffffffffffffffffffffffffffffffffff168152602001600382015481526020016004820154815260200160058201548152602001600682018054806020026020016040519081016040528092919081815260200182805480156108de57602002820191906000526020600020905b8160009054906101000a900473ffffffffffffffffffffffffffffffffffffffff1673ffffffffffffffffffffffffffffffffffffffff1681526020019060010190808311610894575b505050505081526020016007820180548060200260200160405190810160405280929190818152602001828054801561096c57602002820191906000526020600020905b8160009054906101000a900473ffffffffffffffffffffffffffffffffffffffff1673ffffffffffffffffffffffffffffffffffffffff1681526020019060010190808311610922575b505050505081526020016008820160009054906101000a900460ff161515151581526020016009820180546109a090613ea6565b80601f01602080910402602001604051908101604052809291908181526020018280546109cc90613ea6565b8015610a195780601f106109ee57610100808354040283529160200191610a19565b820191906000526020600020905b8154815290600101906020018083116109fc57829003601f168201915b505050505081525050905080610100015115610a6a576040517f08c379a0000000000000000000000000000000000000000000000000000000008152600401610a6190613f23565b60405180910390fd5b60788160600151610a7b9190613f72565b421015610abd576040517f08c379a0000000000000000000000000000000000000000000000000000000008152600401610ab490613ff2565b60405180910390fd5b806040015173ffffffffffffffffffffffffffffffffffffffff163373ffffffffffffffffffffffffffffffffffffffff1614610b2f576040517f08c379a0000000000000000000000000000000000000000000000000000000008152600401610b269061405e565b60405180910390fd5b60008160e00151518260c0015151610b47919061407e565b90506000826080015182610b5b91906140b2565b905060018361010001901515908115158152505060003373ffffffffffffffffffffffffffffffffffffffff1682604051610b9590614125565b60006040518083038185875af1925050503d8060008114610bd2576040519150601f19603f3d011682016040523d82523d6000602084013e610bd7565b606091505b5050905080610bf3576000846101000190151590811515815250505b80610c33576040517f08c379a0000000000000000000000000000000000000000000000000000000008152600401610c2a90614186565b60405180910390fd5b7f0308e7ef5ff7ae64ed45c37a04775b24be0bfbc4cb5f5c3e6b0aa505d006eafc85604051610c629190613a02565b60405180910390a15050505050565b6060600660008373ffffffffffffffffffffffffffffffffffffffff1673ffffffffffffffffffffffffffffffffffffffff168152602001908152602001600020805480602002602001604051908101604052809291908181526020018280548015610cfc57602002820191906000526020600020905b815481526020019060010190808311610ce8575b50505050509050919050565b7f000000000000000000000000000000000000000000000000000000000000000073ffffffffffffffffffffffffffffffffffffffff163373ffffffffffffffffffffffffffffffffffffffff1614610dba57337f00000000000000000000000000000000000000000000000000000000000000006040517f1cf993f4000000000000000000000000000000000000000000000000000000008152600401610db19291906141a6565b60405180910390fd5b610dc48282612d6d565b5050565b60008060025490506060806040518061014001604052808e8e8080601f016020809104026020016040519081016040528093929190818152602001838380828437600081840152601f19601f82011690508083019250505050505050815260200189898080601f016020809104026020016040519081016040528093929190818152602001838380828437600081840152601f19601f8201169050808301925050505050505081526020013373ffffffffffffffffffffffffffffffffffffffff1681526020018c81526020018b81526020018a815260200183815260200182815260200160001515815260200187878080601f016020809104026020016040519081016040528093929190818152602001838380828437600081840152601f19601f82011690508083019250505050505050815250600460008581526020019081526020016000206000820151816000019081610f26919061437b565b506020820151816001019081610f3c919061437b565b5060408201518160020160006101000a81548173ffffffffffffffffffffffffffffffffffffffff021916908373ffffffffffffffffffffffffffffffffffffffff160217905550606082015181600301556080820151816004015560a0820151816005015560c0820151816006019080519060200190610fbe9291906133b3565b5060e0820151816007019080519060200190610fdb9291906133b3565b506101008201518160080160006101000a81548160ff021916908315150217905550610120820151816009019081611013919061437b565b509050507f96beefe7c0c1b00e25286e8b55a743ec392f25ea7c8cb445359df7541168266083338d8c8e8d8d6040516110529796959493929190614489565b60405180910390a16002600081548092919061106d906144f3565b91905055506003839080600181540180825580915050600190039060005260206000200160009091909190915055600560003373ffffffffffffffffffffffffffffffffffffffff1673ffffffffffffffffffffffffffffffffffffffff1681526020019081526020016000208390806001815401808255809150506001900390600052602060002001600090919091909150558293505050509998505050505050505050565b60005b60038054905081101561125257607860046000838152602001908152602001600020600301546111479190613f72565b421115801561117d5750600015156004600083815260200190815260200160002060080160009054906101000a900460ff161515145b80156111a357506000600460008381526020019081526020016000206006018054905014155b156111b1576111b0611257565b5b607860046000838152602001908152602001600020600301546111d49190613f72565b421115801561120a5750600115156004600083815260200190815260200160002060080160009054906101000a900460ff161515145b801561123057506000600460008381526020019081526020016000206006018054905014155b1561123f5761123d6125a8565b505b808061124a906144f3565b915050611117565b505050565b606060005b60025481101561146b57600060046000600384815481106112805761127f61453b565b5b906000526020600020015481526020019081526020016000209050607881600301546112ac9190613f72565b4210611457578060080160009054906101000a900460ff166114565760005b81600601805490508160ff16101561145457611348600384815481106112f4576112f361453b565b5b9060005260206000200154836006018360ff16815481106113185761131761453b565b5b9060005260206000200160009054906101000a900473ffffffffffffffffffffffffffffffffffffffff166114d9565b6113de8483600901805461135b90613ea6565b80601f016020809104026020016040519081016040528092919081815260200182805461138790613ea6565b80156113d45780601f106113a9576101008083540402835291602001916113d4565b820191906000526020600020905b8154815290600101906020018083116113b757829003601f168201915b5050505050612e89565b611441576000826006018054905090506000836000018460090161140184612ef2565b61140e8760050154612ef2565b6040516020016114219493929190614675565b604051602081830303815290604052905061143c8682613113565b955050505b808061144c906146e1565b9150506112cb565b505b5b508080611463906144f3565b91505061125c565b507ffc36d7cc461f11f4f552bda21b5f2e9a7551db8011f5df2dfdcb1675b930b8da8160405161149b9190614816565b60405180910390a150565b600e60009054906101000a900473ffffffffffffffffffffffffffffffffffffffff1681565b6000600380549050905090565b6000600460008481526020019081526020016000209050600080600090505b82600601805490508160ff1610156115da578373ffffffffffffffffffffffffffffffffffffffff16836006018260ff168154811061153a5761153961453b565b5b9060005260206000200160009054906101000a900473ffffffffffffffffffffffffffffffffffffffff1673ffffffffffffffffffffffffffffffffffffffff16036115c757826006018160ff16815481106115995761159861453b565b5b9060005260206000200160009054906101000a900473ffffffffffffffffffffffffffffffffffffffff1691505b80806115d2906146e1565b9150506114f8565b508273ffffffffffffffffffffffffffffffffffffffff168173ffffffffffffffffffffffffffffffffffffffff1614611649576040517f08c379a000000000000000000000000000000000000000000000000000000000815260040161164090614884565b60405180910390fd5b81600701839080600181540180825580915050600190039060005260206000200160009091909190916101000a81548173ffffffffffffffffffffffffffffffffffffffff021916908373ffffffffffffffffffffffffffffffffffffffff16021790555060008373ffffffffffffffffffffffffffffffffffffffff1683600401546040516116d890614125565b60006040518083038185875af1925050503d8060008114611715576040519150601f19603f3d011682016040523d82523d6000602084013e61171a565b606091505b505090508061176d5782600701805480611737576117366148a4565b5b6001900381819060005260206000200160006101000a81549073ffffffffffffffffffffffffffffffffffffffff021916905590555b806117ad576040517f08c379a00000000000000000000000000000000000000000000000000000000081526004016117a490614186565b60405180910390fd5b60018360080160006101000a81548160ff0219169083151502179055507ff51b42fda5553f12aca9bf0984b446bf9883824e148ee9e467eb21f180a05ff385856040516117fb9291906148d3565b60405180910390a15050505050565b606080600080600080606060046000898152602001908152602001600020600001600460008a8152602001908152602001600020600101600460008b815260200190815260200160002060020160009054906101000a900473ffffffffffffffffffffffffffffffffffffffff16600460008c815260200190815260200160002060030154600460008d815260200190815260200160002060050154600460008e815260200190815260200160002060040154600460008f81526020019081526020016000206006018680546118df90613ea6565b80601f016020809104026020016040519081016040528092919081815260200182805461190b90613ea6565b80156119585780601f1061192d57610100808354040283529160200191611958565b820191906000526020600020905b81548152906001019060200180831161193b57829003601f168201915b5050505050965085805461196b90613ea6565b80601f016020809104026020016040519081016040528092919081815260200182805461199790613ea6565b80156119e45780601f106119b9576101008083540402835291602001916119e4565b820191906000526020600020905b8154815290600101906020018083116119c757829003601f168201915b5050505050955080805480602002602001604051908101604052809291908181526020018280548015611a6c57602002820191906000526020600020905b8160009054906101000a900473ffffffffffffffffffffffffffffffffffffffff1673ffffffffffffffffffffffffffffffffffffffff1681526020019060010190808311611a22575b505050505090509650965096509650965096509650919395979092949650565b6000606060005b600380549050811015611ae057600015156004600083815260200190815260200160002060080160009054906101000a900460ff1615151492508080611ad8906144f3565b915050611a93565b509250929050565b600047905090565b600160009054906101000a900473ffffffffffffffffffffffffffffffffffffffff1673ffffffffffffffffffffffffffffffffffffffff163373ffffffffffffffffffffffffffffffffffffffff1614611b80576040517f08c379a0000000000000000000000000000000000000000000000000000000008152600401611b7790614948565b60405180910390fd5b60008060009054906101000a900473ffffffffffffffffffffffffffffffffffffffff169050336000806101000a81548173ffffffffffffffffffffffffffffffffffffffff021916908373ffffffffffffffffffffffffffffffffffffffff1602179055506000600160006101000a81548173ffffffffffffffffffffffffffffffffffffffff021916908373ffffffffffffffffffffffffffffffffffffffff1602179055503373ffffffffffffffffffffffffffffffffffffffff168173ffffffffffffffffffffffffffffffffffffffff167f8be0079c531659141344cd1fd0a4f28419497f9722a3daafe3b4186f6b6457e060405160405180910390a350565b60098181548110611c9557600080fd5b906000526020600020016000915090505481565b60008060009054906101000a900473ffffffffffffffffffffffffffffffffffffffff16905090565b600d5481565b60076020528060005260406000206000915090508060000160009054906101000a900460ff16908060000160019054906101000a900460ff16905082565b600060046000838152602001908152602001600020905080600401543414611d73576040517f08c379a0000000000000000000000000000000000000000000000000000000008152600401611d6a906149b4565b60405180910390fd5b8060030154421115611dba576040517f08c379a0000000000000000000000000000000000000000000000000000000008152600401611db190614a20565b60405180910390fd5b8060050154816006018054905010611e07576040517f08c379a0000000000000000000000000000000000000000000000000000000008152600401611dfe90614a8c565b60405180910390fd5b60005b81600601805490508160ff161015611ee0573373ffffffffffffffffffffffffffffffffffffffff16826006018260ff1681548110611e4c57611e4b61453b565b5b9060005260206000200160009054906101000a900473ffffffffffffffffffffffffffffffffffffffff1673ffffffffffffffffffffffffffffffffffffffff1603611ecd576040517f08c379a0000000000000000000000000000000000000000000000000000000008152600401611ec490614af8565b60405180910390fd5b8080611ed8906146e1565b915050611e0a565b5080600601339080600181540180825580915050600190039060005260206000200160009091909190916101000a81548173ffffffffffffffffffffffffffffffffffffffff021916908373ffffffffffffffffffffffffffffffffffffffff160217905550600660003373ffffffffffffffffffffffffffffffffffffffff1673ffffffffffffffffffffffffffffffffffffffff1681526020019081526020016000208290806001815401808255809150506001900390600052602060002001600090919091909150557f305579fda99551f5107b32b7465875a3984f12521b5df905ee46fe6efb873f928233604051611fdd9291906148d3565b60405180910390a15050565b60025481565b6000600382815481106120055761200461453b565b5b90600052602060002001549050919050565b600460205280600052604060002060009150905080600001805461203a90613ea6565b80601f016020809104026020016040519081016040528092919081815260200182805461206690613ea6565b80156120b35780601f10612088576101008083540402835291602001916120b3565b820191906000526020600020905b81548152906001019060200180831161209657829003601f168201915b5050505050908060010180546120c890613ea6565b80601f01602080910402602001604051908101604052809291908181526020018280546120f490613ea6565b80156121415780601f1061211657610100808354040283529160200191612141565b820191906000526020600020905b81548152906001019060200180831161212457829003601f168201915b5050505050908060020160009054906101000a900473ffffffffffffffffffffffffffffffffffffffff16908060030154908060040154908060050154908060080160009054906101000a900460ff16908060090180546121a190613ea6565b80601f01602080910402602001604051908101604052809291908181526020018280546121cd90613ea6565b801561221a5780601f106121ef5761010080835404028352916020019161221a565b820191906000526020600020905b8154815290600101906020018083116121fd57829003601f168201915b5050505050905088565b600060606007600084815260200190815260200160002060000160019054906101000a900460ff1661228b576040517f08c379a000000000000000000000000000000000000000000000000000000000815260040161228290614b64565b60405180910390fd5b6000600760008581526020019081526020016000206040518060600160405290816000820160009054906101000a900460ff161515151581526020016000820160019054906101000a900460ff161515151581526020016001820180548060200260200160405190810160405280929190818152602001828054801561233057602002820191906000526020600020905b81548152602001906001019080831161231c575b5050505050815250509050806000015181604001519250925050915091565b60006123596131f7565b600860009054906101000a900473ffffffffffffffffffffffffffffffffffffffff1673ffffffffffffffffffffffffffffffffffffffff16635d3b1d30600b54600860149054906101000a900467ffffffffffffffff16600c60049054906101000a900461ffff16600c60009054906101000a900463ffffffff16600c60069054906101000a900463ffffffff166040518663ffffffff1660e01b8152600401612408959493929190614bfc565b6020604051808303816000875af1158015612427573d6000803e3d6000fd5b505050506040513d601f19601f8201168201806040525081019061244b9190614c64565b90506040518060600160405280600015158152602001600115158152602001600067ffffffffffffffff8111156124855761248461370a565b5b6040519080825280602002602001820160405280156124b35781602001602082028036833780820191505090505b508152506007600083815260200190815260200160002060008201518160000160006101000a81548160ff02191690831515021790555060208201518160000160016101000a81548160ff021916908315150217905550604082015181600101908051906020019061252692919061343d565b50905050600981908060018154018082558091505060019003906000526020600020016000909190919091505580600a819055507fcc58b13ad3eab50626c6a6300b1d139cd6ebb1688a7cced9461c2f7e762665ee81600c60069054906101000a900463ffffffff1660405161259d929190614c91565b60405180910390a190565b60006125b261348a565b60005b6003805490508110156129575760046000828152602001908152602001600020604051806101400160405290816000820180546125f190613ea6565b80601f016020809104026020016040519081016040528092919081815260200182805461261d90613ea6565b801561266a5780601f1061263f5761010080835404028352916020019161266a565b820191906000526020600020905b81548152906001019060200180831161264d57829003601f168201915b5050505050815260200160018201805461268390613ea6565b80601f01602080910402602001604051908101604052809291908181526020018280546126af90613ea6565b80156126fc5780601f106126d1576101008083540402835291602001916126fc565b820191906000526020600020905b8154815290600101906020018083116126df57829003601f168201915b505050505081526020016002820160009054906101000a900473ffffffffffffffffffffffffffffffffffffffff1673ffffffffffffffffffffffffffffffffffffffff1673ffffffffffffffffffffffffffffffffffffffff168152602001600382015481526020016004820154815260200160058201548152602001600682018054806020026020016040519081016040528092919081815260200182805480156127fe57602002820191906000526020600020905b8160009054906101000a900473ffffffffffffffffffffffffffffffffffffffff1673ffffffffffffffffffffffffffffffffffffffff16815260200190600101908083116127b4575b505050505081526020016007820180548060200260200160405190810160405280929190818152602001828054801561288c57602002820191906000526020600020905b8160009054906101000a900473ffffffffffffffffffffffffffffffffffffffff1673ffffffffffffffffffffffffffffffffffffffff1681526020019060010190808311612842575b505050505081526020016008820160009054906101000a900460ff161515151581526020016009820180546128c090613ea6565b80601f01602080910402602001604051908101604052809291908181526020018280546128ec90613ea6565b80156129395780601f1061290e57610100808354040283529160200191612939565b820191906000526020600020905b81548152906001019060200180831161291c57829003601f168201915b5050505050815250509150808061294f906144f3565b9150506125b5565b508061010001511561299e576040517f08c379a000000000000000000000000000000000000000000000000000000000815260040161299590613f23565b60405180910390fd5b607881606001516129af9190613f72565b4210156129f1576040517f08c379a00000000000000000000000000000000000000000000000000000000081526004016129e890613ff2565b60405180910390fd5b60008160e00151518260c0015151612a09919061407e565b90506000826080015182612a1d91906140b2565b90506001836101000190151590811515815250506000612a3b61234f565b5060005b600380549050811015612b7157809150600060046000838152602001908152602001600020600601805480602002602001604051908101604052809291908181526020018280548015612ae757602002820191906000526020600020905b8160009054906101000a900473ffffffffffffffffffffffffffffffffffffffff1673ffffffffffffffffffffffffffffffffffffffff1681526020019060010190808311612a9d575b5050505050905060008151600d54612aff9190614ce9565b9050818181518110612b1457612b1361453b565b5b6020026020010151600e60006101000a81548173ffffffffffffffffffffffffffffffffffffffff021916908373ffffffffffffffffffffffffffffffffffffffff16021790555050508080612b69906144f3565b915050612a3f565b506000600e60009054906101000a900473ffffffffffffffffffffffffffffffffffffffff1673ffffffffffffffffffffffffffffffffffffffff1683604051612bba90614125565b60006040518083038185875af1925050503d8060008114612bf7576040519150601f19603f3d011682016040523d82523d6000602084013e612bfc565b606091505b5050905080612c18576000856101000190151590811515815250505b80612c58576040517f08c379a0000000000000000000000000000000000000000000000000000000008152600401612c4f90614186565b60405180910390fd5b7f0308e7ef5ff7ae64ed45c37a04775b24be0bfbc4cb5f5c3e6b0aa505d006eafc82604051612c879190613a02565b60405180910390a1600e60009054906101000a900473ffffffffffffffffffffffffffffffffffffffff169550505050505090565b612cc46131f7565b612ccd81613287565b50565b6060600560008373ffffffffffffffffffffffffffffffffffffffff1673ffffffffffffffffffffffffffffffffffffffff168152602001908152602001600020805480602002602001604051908101604052809291908181526020018280548015612d5b57602002820191906000526020600020905b815481526020019060010190808311612d47575b50505050509050919050565b600a5481565b6007600083815260200190815260200160002060000160019054906101000a900460ff16612dd0576040517f08c379a0000000000000000000000000000000000000000000000000000000008152600401612dc790614b64565b60405180910390fd5b60016007600084815260200190815260200160002060000160006101000a81548160ff02191690831515021790555080600760008481526020019081526020016000206001019080519060200190612e2992919061343d565b5080600081518110612e3e57612e3d61453b565b5b6020026020010151600d819055507ffe2e2d779dba245964d4e3ef9b994be63856fd568bf7d3ca9e224755cb1bd54d8282604051612e7d929190614d1a565b60405180910390a15050565b600080600090505b8351811015612ee6578280519060200120848281518110612eb557612eb461453b565b5b60200260200101518051906020012003612ed3576001915050612eec565b8080612ede906144f3565b915050612e91565b50600090505b92915050565b606060008203612f39576040518060400160405280600181526020017f3000000000000000000000000000000000000000000000000000000000000000815250905061310e565b60006064905060008167ffffffffffffffff811115612f5b57612f5a61370a565b5b6040519080825280601f01601f191660200182016040528015612f8d5781602001600182028036833780820191505090505b50905060005b6000851461301f576000600a86612faa9190614ce9565b9050600a86612fb99190614d4a565b9550806030612fc89190613f72565b60f81b838380612fd7906144f3565b945081518110612fea57612fe961453b565b5b60200101907effffffffffffffffffffffffffffffffffffffffffffffffffffffffffffff1916908160001a90535050612f93565b60008167ffffffffffffffff81111561303b5761303a61370a565b5b6040519080825280601f01601f19166020018201604052801561306d5781602001600182028036833780820191505090505b50905060005b8281101561310557836001828561308a919061407e565b613094919061407e565b815181106130a5576130a461453b565b5b602001015160f81c60f81b8282815181106130c3576130c261453b565b5b60200101907effffffffffffffffffffffffffffffffffffffffffffffffffffffffffffff1916908160001a90535080806130fd906144f3565b915050613073565b50809450505050505b919050565b60606000600184516131259190613f72565b67ffffffffffffffff81111561313e5761313d61370a565b5b60405190808252806020026020018201604052801561317157816020015b606081526020019060019003908161315c5790505b50905060005b84518110156131cc578481815181106131935761319261453b565b5b60200260200101518282815181106131ae576131ad61453b565b5b602002602001018190525080806131c4906144f3565b915050613177565b5082818551815181106131e2576131e161453b565b5b60200260200101819052508091505092915050565b60008054906101000a900473ffffffffffffffffffffffffffffffffffffffff1673ffffffffffffffffffffffffffffffffffffffff163373ffffffffffffffffffffffffffffffffffffffff1614613285576040517f08c379a000000000000000000000000000000000000000000000000000000000815260040161327c90614dc7565b60405180910390fd5b565b3373ffffffffffffffffffffffffffffffffffffffff168173ffffffffffffffffffffffffffffffffffffffff16036132f5576040517f08c379a00000000000000000000000000000000000000000000000000000000081526004016132ec90614e33565b60405180910390fd5b80600160006101000a81548173ffffffffffffffffffffffffffffffffffffffff021916908373ffffffffffffffffffffffffffffffffffffffff1602179055508073ffffffffffffffffffffffffffffffffffffffff1660008054906101000a900473ffffffffffffffffffffffffffffffffffffffff1673ffffffffffffffffffffffffffffffffffffffff167fed8889f560326eb138920d842192f0eb3dd22b4f139c87a2c57538e05bae127860405160405180910390a350565b82805482825590600052602060002090810192821561342c579160200282015b8281111561342b5782518260006101000a81548173ffffffffffffffffffffffffffffffffffffffff021916908373ffffffffffffffffffffffffffffffffffffffff160217905550916020019190600101906133d3565b5b50905061343991906134f5565b5090565b828054828255906000526020600020908101928215613479579160200282015b8281111561347857825182559160200191906001019061345d565b5b50905061348691906134f5565b5090565b6040518061014001604052806060815260200160608152602001600073ffffffffffffffffffffffffffffffffffffffff1681526020016000815260200160008152602001600081526020016060815260200160608152602001600015158152602001606081525090565b5b8082111561350e5760008160009055506001016134f6565b5090565b6000604051905090565b600080fd5b600080fd5b6000819050919050565b61353981613526565b811461354457600080fd5b50565b60008135905061355681613530565b92915050565b6000602082840312156135725761357161351c565b5b600061358084828501613547565b91505092915050565b600073ffffffffffffffffffffffffffffffffffffffff82169050919050565b60006135b482613589565b9050919050565b6135c4816135a9565b81146135cf57600080fd5b50565b6000813590506135e1816135bb565b92915050565b6000602082840312156135fd576135fc61351c565b5b600061360b848285016135d2565b91505092915050565b600081519050919050565b600082825260208201905092915050565b6000819050602082019050919050565b61364981613526565b82525050565b600061365b8383613640565b60208301905092915050565b6000602082019050919050565b600061367f82613614565b613689818561361f565b935061369483613630565b8060005b838110156136c55781516136ac888261364f565b97506136b783613667565b925050600181019050613698565b5085935050505092915050565b600060208201905081810360008301526136ec8184613674565b905092915050565b600080fd5b6000601f19601f8301169050919050565b7f4e487b7100000000000000000000000000000000000000000000000000000000600052604160045260246000fd5b613742826136f9565b810181811067ffffffffffffffff821117156137615761376061370a565b5b80604052505050565b6000613774613512565b90506137808282613739565b919050565b600067ffffffffffffffff8211156137a05761379f61370a565b5b602082029050602081019050919050565b600080fd5b60006137c96137c484613785565b61376a565b905080838252602082019050602084028301858111156137ec576137eb6137b1565b5b835b8181101561381557806138018882613547565b8452602084019350506020810190506137ee565b5050509392505050565b600082601f830112613834576138336136f4565b5b81356138448482602086016137b6565b91505092915050565b600080604083850312156138645761386361351c565b5b600061387285828601613547565b925050602083013567ffffffffffffffff81111561389357613892613521565b5b61389f8582860161381f565b9150509250929050565b600080fd5b60008083601f8401126138c4576138c36136f4565b5b8235905067ffffffffffffffff8111156138e1576138e06138a9565b5b6020830191508360018202830111156138fd576138fc6137b1565b5b9250929050565b600080600080600080600080600060c08a8c0312156139265761392561351c565b5b60008a013567ffffffffffffffff81111561394457613943613521565b5b6139508c828d016138ae565b995099505060206139638c828d01613547565b97505060406139748c828d01613547565b96505060606139858c828d01613547565b95505060808a013567ffffffffffffffff8111156139a6576139a5613521565b5b6139b28c828d016138ae565b945094505060a08a013567ffffffffffffffff8111156139d5576139d4613521565b5b6139e18c828d016138ae565b92509250509295985092959850929598565b6139fc81613526565b82525050565b6000602082019050613a1760008301846139f3565b92915050565b60008083601f840112613a3357613a326136f4565b5b8235905067ffffffffffffffff811115613a5057613a4f6138a9565b5b602083019150836001820283011115613a6c57613a6b6137b1565b5b9250929050565b60008060208385031215613a8a57613a8961351c565b5b600083013567ffffffffffffffff811115613aa857613aa7613521565b5b613ab485828601613a1d565b92509250509250929050565b613ac9816135a9565b82525050565b6000602082019050613ae46000830184613ac0565b92915050565b60008060408385031215613b0157613b0061351c565b5b6000613b0f85828601613547565b9250506020613b20858286016135d2565b9150509250929050565b600081519050919050565b600082825260208201905092915050565b60005b83811015613b64578082015181840152602081019050613b49565b60008484015250505050565b6000613b7b82613b2a565b613b858185613b35565b9350613b95818560208601613b46565b613b9e816136f9565b840191505092915050565b600081519050919050565b600082825260208201905092915050565b6000819050602082019050919050565b613bde816135a9565b82525050565b6000613bf08383613bd5565b60208301905092915050565b6000602082019050919050565b6000613c1482613ba9565b613c1e8185613bb4565b9350613c2983613bc5565b8060005b83811015613c5a578151613c418882613be4565b9750613c4c83613bfc565b925050600181019050613c2d565b5085935050505092915050565b600060e0820190508181036000830152613c81818a613b70565b90508181036020830152613c958189613b70565b9050613ca46040830188613ac0565b613cb160608301876139f3565b613cbe60808301866139f3565b613ccb60a08301856139f3565b81810360c0830152613cdd8184613c09565b905098975050505050505050565b60008115159050919050565b613d0081613ceb565b82525050565b600081519050919050565b600082825260208201905092915050565b6000613d2d82613d06565b613d378185613d11565b9350613d47818560208601613b46565b613d50816136f9565b840191505092915050565b6000604082019050613d706000830185613cf7565b8181036020830152613d828184613d22565b90509392505050565b6000604082019050613da06000830185613cf7565b613dad6020830184613cf7565b9392505050565b6000610100820190508181036000830152613dcf818b613b70565b90508181036020830152613de3818a613b70565b9050613df26040830189613ac0565b613dff60608301886139f3565b613e0c60808301876139f3565b613e1960a08301866139f3565b613e2660c0830185613cf7565b81810360e0830152613e388184613b70565b90509998505050505050505050565b6000604082019050613e5c6000830185613cf7565b8181036020830152613e6e8184613674565b90509392505050565b7f4e487b7100000000000000000000000000000000000000000000000000000000600052602260045260246000fd5b60006002820490506001821680613ebe57607f821691505b602082108103613ed157613ed0613e77565b5b50919050565b7f414c524541445920504149440000000000000000000000000000000000000000600082015250565b6000613f0d600c83613b35565b9150613f1882613ed7565b602082019050919050565b60006020820190508181036000830152613f3c81613f00565b9050919050565b7f4e487b7100000000000000000000000000000000000000000000000000000000600052601160045260246000fd5b6000613f7d82613526565b9150613f8883613526565b9250828201905080821115613fa057613f9f613f43565b5b92915050565b7f544f4f204541524c590000000000000000000000000000000000000000000000600082015250565b6000613fdc600983613b35565b9150613fe782613fa6565b602082019050919050565b6000602082019050818103600083015261400b81613fcf565b9050919050565b7f4d555354204245204556454e54204f574e455200000000000000000000000000600082015250565b6000614048601383613b35565b915061405382614012565b602082019050919050565b600060208201905081810360008301526140778161403b565b9050919050565b600061408982613526565b915061409483613526565b92508282039050818111156140ac576140ab613f43565b5b92915050565b60006140bd82613526565b91506140c883613526565b92508282026140d681613526565b915082820484148315176140ed576140ec613f43565b5b5092915050565b600081905092915050565b50565b600061410f6000836140f4565b915061411a826140ff565b600082019050919050565b600061413082614102565b9150819050919050565b7f4661696c656420746f2073656e64204574686572000000000000000000000000600082015250565b6000614170601483613b35565b915061417b8261413a565b602082019050919050565b6000602082019050818103600083015261419f81614163565b9050919050565b60006040820190506141bb6000830185613ac0565b6141c86020830184613ac0565b9392505050565b60008190508160005260206000209050919050565b60006020601f8301049050919050565b600082821b905092915050565b6000600883026142317fffffffffffffffffffffffffffffffffffffffffffffffffffffffffffffffff826141f4565b61423b86836141f4565b95508019841693508086168417925050509392505050565b6000819050919050565b600061427861427361426e84613526565b614253565b613526565b9050919050565b6000819050919050565b6142928361425d565b6142a661429e8261427f565b848454614201565b825550505050565b600090565b6142bb6142ae565b6142c6818484614289565b505050565b5b818110156142ea576142df6000826142b3565b6001810190506142cc565b5050565b601f82111561432f57614300816141cf565b614309846141e4565b81016020851015614318578190505b61432c614324856141e4565b8301826142cb565b50505b505050565b600082821c905092915050565b600061435260001984600802614334565b1980831691505092915050565b600061436b8383614341565b9150826002028217905092915050565b61438482613b2a565b67ffffffffffffffff81111561439d5761439c61370a565b5b6143a78254613ea6565b6143b28282856142ee565b600060209050601f8311600181146143e557600084156143d3578287015190505b6143dd858261435f565b865550614445565b601f1984166143f3866141cf565b60005b8281101561441b578489015182556001820191506020850194506020810190506143f6565b868310156144385784890151614434601f891682614341565b8355505b6001600288020188555050505b505050505050565b82818337600083830152505050565b60006144688385613b35565b935061447583858461444d565b61447e836136f9565b840190509392505050565b600060c08201905061449e600083018a6139f3565b6144ab6020830189613ac0565b6144b860408301886139f3565b6144c560608301876139f3565b6144d260808301866139f3565b81810360a08301526144e581848661445c565b905098975050505050505050565b60006144fe82613526565b91507fffffffffffffffffffffffffffffffffffffffffffffffffffffffffffffffff82036145305761452f613f43565b5b600182019050919050565b7f4e487b7100000000000000000000000000000000000000000000000000000000600052603260045260246000fd5b600081905092915050565b6000815461458281613ea6565b61458c818661456a565b945060018216600081146145a757600181146145bc576145ef565b60ff19831686528115158202860193506145ef565b6145c5856141cf565b60005b838110156145e7578154818901526001820191506020810190506145c8565b838801955050505b50505092915050565b7f2d00000000000000000000000000000000000000000000000000000000000000600082015250565b600061462e60018361456a565b9150614639826145f8565b600182019050919050565b600061464f82613b2a565b614659818561456a565b9350614669818560208601613b46565b80840191505092915050565b60006146818287614575565b915061468c82614621565b91506146988286614575565b91506146a382614621565b91506146af8285614644565b91506146ba82614621565b91506146c68284614644565b915081905095945050505050565b600060ff82169050919050565b60006146ec826146d4565b915060ff82036146ff576146fe613f43565b5b600182019050919050565b600081519050919050565b600082825260208201905092915050565b6000819050602082019050919050565b600082825260208201905092915050565b600061475282613b2a565b61475c8185614736565b935061476c818560208601613b46565b614775816136f9565b840191505092915050565b600061478c8383614747565b905092915050565b6000602082019050919050565b60006147ac8261470a565b6147b68185614715565b9350836020820285016147c885614726565b8060005b8581101561480457848403895281516147e58582614780565b94506147f083614794565b925060208a019950506001810190506147cc565b50829750879550505050505092915050565b6000602082019050818103600083015261483081846147a1565b905092915050565b7f4e4f205253565020544f20434f4e4649524d0000000000000000000000000000600082015250565b600061486e601283613b35565b915061487982614838565b602082019050919050565b6000602082019050818103600083015261489d81614861565b9050919050565b7f4e487b7100000000000000000000000000000000000000000000000000000000600052603160045260246000fd5b60006040820190506148e860008301856139f3565b6148f56020830184613ac0565b9392505050565b7f4d7573742062652070726f706f736564206f776e657200000000000000000000600082015250565b6000614932601683613b35565b915061493d826148fc565b602082019050919050565b6000602082019050818103600083015261496181614925565b9050919050565b7f4e4f5420454e4f55474800000000000000000000000000000000000000000000600082015250565b600061499e600a83613b35565b91506149a982614968565b602082019050919050565b600060208201905081810360008301526149cd81614991565b9050919050565b7f414c52454144592048415050454e454400000000000000000000000000000000600082015250565b6000614a0a601083613b35565b9150614a15826149d4565b602082019050919050565b60006020820190508181036000830152614a39816149fd565b9050919050565b7f54686973206576656e7420686173207265616368656420636170616369747900600082015250565b6000614a76601f83613b35565b9150614a8182614a40565b602082019050919050565b60006020820190508181036000830152614aa581614a69565b9050919050565b7f414c524541445920434f4e4649524d4544000000000000000000000000000000600082015250565b6000614ae2601183613b35565b9150614aed82614aac565b602082019050919050565b60006020820190508181036000830152614b1181614ad5565b9050919050565b7f72657175657374206e6f7420666f756e64000000000000000000000000000000600082015250565b6000614b4e601183613b35565b9150614b5982614b18565b602082019050919050565b60006020820190508181036000830152614b7d81614b41565b9050919050565b6000819050919050565b614b9781614b84565b82525050565b600067ffffffffffffffff82169050919050565b614bba81614b9d565b82525050565b600061ffff82169050919050565b614bd781614bc0565b82525050565b600063ffffffff82169050919050565b614bf681614bdd565b82525050565b600060a082019050614c116000830188614b8e565b614c1e6020830187614bb1565b614c2b6040830186614bce565b614c386060830185614bed565b614c456080830184614bed565b9695505050505050565b600081519050614c5e81613530565b92915050565b600060208284031215614c7a57614c7961351c565b5b6000614c8884828501614c4f565b91505092915050565b6000604082019050614ca660008301856139f3565b614cb36020830184614bed565b9392505050565b7f4e487b7100000000000000000000000000000000000000000000000000000000600052601260045260246000fd5b6000614cf482613526565b9150614cff83613526565b925082614d0f57614d0e614cba565b5b828206905092915050565b6000604082019050614d2f60008301856139f3565b8181036020830152614d418184613674565b90509392505050565b6000614d5582613526565b9150614d6083613526565b925082614d7057614d6f614cba565b5b828204905092915050565b7f4f6e6c792063616c6c61626c65206279206f776e657200000000000000000000600082015250565b6000614db1601683613b35565b9150614dbc82614d7b565b602082019050919050565b60006020820190508181036000830152614de081614da4565b9050919050565b7f43616e6e6f74207472616e7366657220746f2073656c66000000000000000000600082015250565b6000614e1d601783613b35565b9150614e2882614de7565b602082019050919050565b60006020820190508181036000830152614e4c81614e10565b905091905056fea2646970667358221220ff763d3ddd9471b1f17647cc84965c5c1060a29893aaf635b683d1e020d5692d64736f6c63430008130033",
  "linkReferences": {},
  "deployedLinkReferences": {}
}