{
  "_format": "hh-sol-artifact-1",
  "contractName": "EventHub",
  "sourceName": "contracts/EventHub.sol",
  "abi": [
    {
      "anonymous": false,
      "inputs": [
        {
          "indexed": false,
          "internalType": "uint256",
          "name": "eventID",
          "type": "uint256"
        },
        {
          "indexed": false,
          "internalType": "address",
          "name": "attendeeAddress",
          "type": "address"
        }
      ],
      "name": "ConfirmedAttendee",
      "type": "event"
    },
    {
      "anonymous": false,
      "inputs": [
        {
          "indexed": false,
          "internalType": "uint256",
          "name": "eventID",
          "type": "uint256"
        }
      ],
      "name": "DepositsPaidOut",
      "type": "event"
    },
    {
      "anonymous": false,
      "inputs": [
        {
          "indexed": false,
          "internalType": "uint256",
          "name": "eventID",
          "type": "uint256"
        },
        {
          "indexed": false,
          "internalType": "address",
          "name": "creatorAddress",
          "type": "address"
        },
        {
          "indexed": false,
          "internalType": "uint256",
          "name": "eventTimestamp",
          "type": "uint256"
        },
        {
          "indexed": false,
          "internalType": "uint256",
          "name": "maxCapacity",
          "type": "uint256"
        },
        {
          "indexed": false,
          "internalType": "uint256",
          "name": "deposit",
          "type": "uint256"
        },
        {
          "indexed": false,
          "internalType": "string",
          "name": "imagePath",
          "type": "string"
        }
      ],
      "name": "NewEventCreated",
      "type": "event"
    },
    {
      "anonymous": false,
      "inputs": [
        {
          "indexed": false,
          "internalType": "uint256",
          "name": "eventID",
          "type": "uint256"
        },
        {
          "indexed": false,
          "internalType": "address",
          "name": "attendeeAddress",
          "type": "address"
        }
      ],
      "name": "NewRSVP",
      "type": "event"
    },
    {
      "anonymous": false,
      "inputs": [
        {
          "indexed": false,
          "internalType": "string[]",
          "name": "phones",
          "type": "string[]"
        }
      ],
      "name": "Phones",
      "type": "event"
    },
    {
      "inputs": [],
      "name": "confirmAllAttendees",
      "outputs": [],
      "stateMutability": "nonpayable",
      "type": "function"
    },
    {
      "inputs": [
        {
          "internalType": "uint256",
          "name": "eventId",
          "type": "uint256"
        },
        {
          "internalType": "address",
          "name": "attendee",
          "type": "address"
        }
      ],
      "name": "confirmAttendee",
      "outputs": [],
      "stateMutability": "nonpayable",
      "type": "function"
    },
    {
      "inputs": [
        {
          "internalType": "string",
          "name": "title",
          "type": "string"
        },
        {
          "internalType": "uint256",
          "name": "eventTimestamp",
          "type": "uint256"
        },
        {
          "internalType": "uint256",
          "name": "deposit",
          "type": "uint256"
        },
        {
          "internalType": "uint256",
          "name": "maxCapacity",
          "type": "uint256"
        },
        {
          "internalType": "string",
          "name": "imagePath",
          "type": "string"
        },
        {
          "internalType": "string",
          "name": "phone",
          "type": "string"
        }
      ],
      "name": "createNewEvent",
      "outputs": [
        {
          "internalType": "uint256",
          "name": "",
          "type": "uint256"
        }
      ],
      "stateMutability": "payable",
      "type": "function"
    },
    {
      "inputs": [
        {
          "internalType": "uint256",
          "name": "eventId",
          "type": "uint256"
        }
      ],
      "name": "createNewRSVP",
      "outputs": [],
      "stateMutability": "payable",
      "type": "function"
    },
    {
      "inputs": [],
      "name": "getContractBalance",
      "outputs": [
        {
          "internalType": "uint256",
          "name": "",
          "type": "uint256"
        }
      ],
      "stateMutability": "view",
      "type": "function"
    },
    {
      "inputs": [
        {
          "internalType": "address",
          "name": "creator",
          "type": "address"
        }
      ],
      "name": "getCreatorEvents",
      "outputs": [
        {
          "internalType": "uint256[]",
          "name": "createdEvents",
          "type": "uint256[]"
        }
      ],
      "stateMutability": "view",
      "type": "function"
    },
    {
      "inputs": [
        {
          "internalType": "uint256",
          "name": "eventID",
          "type": "uint256"
        }
      ],
      "name": "getEvent",
      "outputs": [
        {
          "internalType": "string",
          "name": "title",
          "type": "string"
        },
        {
          "internalType": "string",
          "name": "imagePath",
          "type": "string"
        },
        {
          "internalType": "address",
          "name": "eventOwner",
          "type": "address"
        },
        {
          "internalType": "uint256",
          "name": "eventTimestamp",
          "type": "uint256"
        },
        {
          "internalType": "uint256",
          "name": "maxCapacity",
          "type": "uint256"
        },
        {
          "internalType": "uint256",
          "name": "deposit",
          "type": "uint256"
        },
        {
          "internalType": "address[]",
          "name": "confirmedRSVPs",
          "type": "address[]"
        }
      ],
      "stateMutability": "view",
      "type": "function"
    },
    {
      "inputs": [
        {
          "internalType": "uint256",
          "name": "i",
          "type": "uint256"
        }
      ],
      "name": "getEventId",
      "outputs": [
        {
          "internalType": "uint256",
          "name": "",
          "type": "uint256"
        }
      ],
      "stateMutability": "view",
      "type": "function"
    },
    {
      "inputs": [],
      "name": "getEventLength",
      "outputs": [
        {
          "internalType": "uint256",
          "name": "",
          "type": "uint256"
        }
      ],
      "stateMutability": "view",
      "type": "function"
    },
    {
      "inputs": [
        {
          "internalType": "address",
          "name": "attendee",
          "type": "address"
        }
      ],
      "name": "getUserRSVPs",
      "outputs": [
        {
          "internalType": "uint256[]",
          "name": "RSVPs",
          "type": "uint256[]"
        }
      ],
      "stateMutability": "view",
      "type": "function"
    },
    {
      "inputs": [
        {
          "internalType": "uint256",
          "name": "",
          "type": "uint256"
        }
      ],
      "name": "idToEvent",
      "outputs": [
        {
          "internalType": "string",
          "name": "title",
          "type": "string"
        },
        {
          "internalType": "string",
          "name": "imagePath",
          "type": "string"
        },
        {
          "internalType": "address",
          "name": "eventOwner",
          "type": "address"
        },
        {
          "internalType": "uint256",
          "name": "eventTimestamp",
          "type": "uint256"
        },
        {
          "internalType": "uint256",
          "name": "deposit",
          "type": "uint256"
        },
        {
          "internalType": "uint256",
          "name": "maxCapacity",
          "type": "uint256"
        },
        {
          "internalType": "bool",
          "name": "paidOut",
          "type": "bool"
        },
        {
          "internalType": "string",
          "name": "phone",
          "type": "string"
        }
      ],
      "stateMutability": "view",
      "type": "function"
    },
    {
      "inputs": [],
      "name": "totalEvents",
      "outputs": [
        {
          "internalType": "uint256",
          "name": "",
          "type": "uint256"
        }
      ],
      "stateMutability": "view",
      "type": "function"
    },
    {
      "inputs": [
        {
          "internalType": "uint256",
          "name": "eventId",
          "type": "uint256"
        }
      ],
      "name": "withdrawUnclaimedDeposits",
      "outputs": [],
      "stateMutability": "nonpayable",
      "type": "function"
    }
  ],
  "bytecode": "0x608060405234801561001057600080fd5b506131e6806100206000396000f3fe6080604052600436106100c25760003560e01c80636d1884e01161007f578063ba87068611610059578063ba87068614610252578063c3be559b1461027d578063d46bae4b146102ba578063f82678f2146102fe576100c2565b80636d1884e0146101c85780636f9fb98a1461020b578063ada06a3b14610236576100c2565b8063127d17ab146100c75780631b302c4f146100f0578063289b9b8b1461012d5780634bbbeb491461015d5780635c98dfa1146101745780636acb5dd31461019f575b600080fd5b3480156100d357600080fd5b506100ee60048036038101906100e99190611eff565b61033b565b005b3480156100fc57600080fd5b5061011760048036038101906101129190611f8a565b61090c565b6040516101249190612075565b60405180910390f35b610147600480360381019061014291906120fc565b6109a3565b60405161015491906121fa565b60405180910390f35b34801561016957600080fd5b50610172610cee565b005b34801561018057600080fd5b50610189610f3d565b60405161019691906121fa565b60405180910390f35b3480156101ab57600080fd5b506101c660048036038101906101c19190612215565b610f4a565b005b3480156101d457600080fd5b506101ef60048036038101906101ea9190611eff565b61127b565b60405161020297969594939291906123b2565b60405180910390f35b34801561021757600080fd5b506102206114fd565b60405161022d91906121fa565b60405180910390f35b610250600480360381019061024b9190611eff565b611505565b005b34801561025e57600080fd5b506102676117d8565b60405161027491906121fa565b60405180910390f35b34801561028957600080fd5b506102a4600480360381019061029f9190611eff565b6117de565b6040516102b191906121fa565b60405180910390f35b3480156102c657600080fd5b506102e160048036038101906102dc9190611eff565b611806565b6040516102f5989796959493929190612451565b60405180910390f35b34801561030a57600080fd5b5061032560048036038101906103209190611f8a565b611a13565b6040516103329190612075565b60405180910390f35b6000600260008381526020019081526020016000206040518061014001604052908160008201805461036c90612513565b80601f016020809104026020016040519081016040528092919081815260200182805461039890612513565b80156103e55780601f106103ba576101008083540402835291602001916103e5565b820191906000526020600020905b8154815290600101906020018083116103c857829003601f168201915b505050505081526020016001820180546103fe90612513565b80601f016020809104026020016040519081016040528092919081815260200182805461042a90612513565b80156104775780601f1061044c57610100808354040283529160200191610477565b820191906000526020600020905b81548152906001019060200180831161045a57829003601f168201915b505050505081526020016002820160009054906101000a900473ffffffffffffffffffffffffffffffffffffffff1673ffffffffffffffffffffffffffffffffffffffff1673ffffffffffffffffffffffffffffffffffffffff1681526020016003820154815260200160048201548152602001600582015481526020016006820180548060200260200160405190810160405280929190818152602001828054801561057957602002820191906000526020600020905b8160009054906101000a900473ffffffffffffffffffffffffffffffffffffffff1673ffffffffffffffffffffffffffffffffffffffff168152602001906001019080831161052f575b505050505081526020016007820180548060200260200160405190810160405280929190818152602001828054801561060757602002820191906000526020600020905b8160009054906101000a900473ffffffffffffffffffffffffffffffffffffffff1673ffffffffffffffffffffffffffffffffffffffff16815260200190600101908083116105bd575b505050505081526020016008820160009054906101000a900460ff1615151515815260200160098201805461063b90612513565b80601f016020809104026020016040519081016040528092919081815260200182805461066790612513565b80156106b45780601f10610689576101008083540402835291602001916106b4565b820191906000526020600020905b81548152906001019060200180831161069757829003601f168201915b505050505081525050905080610100015115610705576040517f08c379a00000000000000000000000000000000000000000000000000000000081526004016106fc90612590565b60405180910390fd5b6078816060015161071691906125df565b421015610758576040517f08c379a000000000000000000000000000000000000000000000000000000000815260040161074f9061265f565b60405180910390fd5b806040015173ffffffffffffffffffffffffffffffffffffffff163373ffffffffffffffffffffffffffffffffffffffff16146107ca576040517f08c379a00000000000000000000000000000000000000000000000000000000081526004016107c1906126cb565b60405180910390fd5b60008160e00151518260c00151516107e291906126eb565b905060008260800151826107f6919061271f565b905060018361010001901515908115158152505060003373ffffffffffffffffffffffffffffffffffffffff168260405161083090612792565b60006040518083038185875af1925050503d806000811461086d576040519150601f19603f3d011682016040523d82523d6000602084013e610872565b606091505b505090508061088e576000846101000190151590811515815250505b806108ce576040517f08c379a00000000000000000000000000000000000000000000000000000000081526004016108c5906127f3565b60405180910390fd5b7f0308e7ef5ff7ae64ed45c37a04775b24be0bfbc4cb5f5c3e6b0aa505d006eafc856040516108fd91906121fa565b60405180910390a15050505050565b6060600460008373ffffffffffffffffffffffffffffffffffffffff1673ffffffffffffffffffffffffffffffffffffffff16815260200190815260200160002080548060200260200160405190810160405280929190818152602001828054801561099757602002820191906000526020600020905b815481526020019060010190808311610983575b50505050509050919050565b60008060005490506060806040518061014001604052808e8e8080601f016020809104026020016040519081016040528093929190818152602001838380828437600081840152601f19601f82011690508083019250505050505050815260200189898080601f016020809104026020016040519081016040528093929190818152602001838380828437600081840152601f19601f8201169050808301925050505050505081526020013373ffffffffffffffffffffffffffffffffffffffff1681526020018c81526020018b81526020018a815260200183815260200182815260200160001515815260200187878080601f016020809104026020016040519081016040528093929190818152602001838380828437600081840152601f19601f82011690508083019250505050505050815250600260008581526020019081526020016000206000820151816000019081610b0191906129ee565b506020820151816001019081610b1791906129ee565b5060408201518160020160006101000a81548173ffffffffffffffffffffffffffffffffffffffff021916908373ffffffffffffffffffffffffffffffffffffffff160217905550606082015181600301556080820151816004015560a0820151816005015560c0820151816006019080519060200190610b99929190611e18565b5060e0820151816007019080519060200190610bb6929190611e18565b506101008201518160080160006101000a81548160ff021916908315150217905550610120820151816009019081610bee91906129ee565b509050507f96beefe7c0c1b00e25286e8b55a743ec392f25ea7c8cb445359df7541168266083338d8c8e8d8d604051610c2d9796959493929190612afc565b60405180910390a1600080815480929190610c4790612b66565b91905055506001839080600181540180825580915050600190039060005260206000200160009091909190915055600360003373ffffffffffffffffffffffffffffffffffffffff1673ffffffffffffffffffffffffffffffffffffffff1681526020019081526020016000208390806001815401808255809150506001900390600052602060002001600090919091909150558293505050509998505050505050505050565b606060005b600054811015610f025760006002600060018481548110610d1757610d16612bae565b5b90600052602060002001548152602001908152602001600020905060788160030154610d4391906125df565b4210610eee578060080160009054906101000a900460ff16610eed5760005b81600601805490508160ff161015610eeb57610ddf60018481548110610d8b57610d8a612bae565b5b9060005260206000200154836006018360ff1681548110610daf57610dae612bae565b5b9060005260206000200160009054906101000a900473ffffffffffffffffffffffffffffffffffffffff16610f4a565b610e7584836009018054610df290612513565b80601f0160208091040260200160405190810160405280929190818152602001828054610e1e90612513565b8015610e6b5780601f10610e4057610100808354040283529160200191610e6b565b820191906000526020600020905b815481529060010190602001808311610e4e57829003601f168201915b5050505050611aaa565b610ed85760008260060180549050905060008360000184600901610e9884611b13565b610ea58760050154611b13565b604051602001610eb89493929190612ce8565b6040516020818303038152906040529050610ed38682611d34565b955050505b8080610ee390612d54565b915050610d62565b505b5b508080610efa90612b66565b915050610cf3565b507ffc36d7cc461f11f4f552bda21b5f2e9a7551db8011f5df2dfdcb1675b930b8da81604051610f329190612e89565b60405180910390a150565b6000600180549050905090565b6000600260008481526020019081526020016000209050600080600090505b82600601805490508160ff16101561104b578373ffffffffffffffffffffffffffffffffffffffff16836006018260ff1681548110610fab57610faa612bae565b5b9060005260206000200160009054906101000a900473ffffffffffffffffffffffffffffffffffffffff1673ffffffffffffffffffffffffffffffffffffffff160361103857826006018160ff168154811061100a57611009612bae565b5b9060005260206000200160009054906101000a900473ffffffffffffffffffffffffffffffffffffffff1691505b808061104390612d54565b915050610f69565b508273ffffffffffffffffffffffffffffffffffffffff168173ffffffffffffffffffffffffffffffffffffffff16146110ba576040517f08c379a00000000000000000000000000000000000000000000000000000000081526004016110b190612ef7565b60405180910390fd5b81600701839080600181540180825580915050600190039060005260206000200160009091909190916101000a81548173ffffffffffffffffffffffffffffffffffffffff021916908373ffffffffffffffffffffffffffffffffffffffff16021790555060008373ffffffffffffffffffffffffffffffffffffffff16836004015460405161114990612792565b60006040518083038185875af1925050503d8060008114611186576040519150601f19603f3d011682016040523d82523d6000602084013e61118b565b606091505b50509050806111de57826007018054806111a8576111a7612f17565b5b6001900381819060005260206000200160006101000a81549073ffffffffffffffffffffffffffffffffffffffff021916905590555b8061121e576040517f08c379a0000000000000000000000000000000000000000000000000000000008152600401611215906127f3565b60405180910390fd5b60018360080160006101000a81548160ff0219169083151502179055507ff51b42fda5553f12aca9bf0984b446bf9883824e148ee9e467eb21f180a05ff3858560405161126c929190612f46565b60405180910390a15050505050565b606080600080600080606060026000898152602001908152602001600020600001600260008a8152602001908152602001600020600101600260008b815260200190815260200160002060020160009054906101000a900473ffffffffffffffffffffffffffffffffffffffff16600260008c815260200190815260200160002060030154600260008d815260200190815260200160002060050154600260008e815260200190815260200160002060040154600260008f815260200190815260200160002060060186805461135090612513565b80601f016020809104026020016040519081016040528092919081815260200182805461137c90612513565b80156113c95780601f1061139e576101008083540402835291602001916113c9565b820191906000526020600020905b8154815290600101906020018083116113ac57829003601f168201915b505050505096508580546113dc90612513565b80601f016020809104026020016040519081016040528092919081815260200182805461140890612513565b80156114555780601f1061142a57610100808354040283529160200191611455565b820191906000526020600020905b81548152906001019060200180831161143857829003601f168201915b50505050509550808054806020026020016040519081016040528092919081815260200182805480156114dd57602002820191906000526020600020905b8160009054906101000a900473ffffffffffffffffffffffffffffffffffffffff1673ffffffffffffffffffffffffffffffffffffffff1681526020019060010190808311611493575b505050505090509650965096509650965096509650919395979092949650565b600047905090565b600060026000838152602001908152602001600020905080600401543414611562576040517f08c379a000000000000000000000000000000000000000000000000000000000815260040161155990612fbb565b60405180910390fd5b80600301544211156115a9576040517f08c379a00000000000000000000000000000000000000000000000000000000081526004016115a090613027565b60405180910390fd5b80600501548160060180549050106115f6576040517f08c379a00000000000000000000000000000000000000000000000000000000081526004016115ed90613093565b60405180910390fd5b60005b81600601805490508160ff1610156116cf573373ffffffffffffffffffffffffffffffffffffffff16826006018260ff168154811061163b5761163a612bae565b5b9060005260206000200160009054906101000a900473ffffffffffffffffffffffffffffffffffffffff1673ffffffffffffffffffffffffffffffffffffffff16036116bc576040517f08c379a00000000000000000000000000000000000000000000000000000000081526004016116b3906130ff565b60405180910390fd5b80806116c790612d54565b9150506115f9565b5080600601339080600181540180825580915050600190039060005260206000200160009091909190916101000a81548173ffffffffffffffffffffffffffffffffffffffff021916908373ffffffffffffffffffffffffffffffffffffffff160217905550600460003373ffffffffffffffffffffffffffffffffffffffff1673ffffffffffffffffffffffffffffffffffffffff1681526020019081526020016000208290806001815401808255809150506001900390600052602060002001600090919091909150557f305579fda99551f5107b32b7465875a3984f12521b5df905ee46fe6efb873f9282336040516117cc929190612f46565b60405180910390a15050565b60005481565b6000600182815481106117f4576117f3612bae565b5b90600052602060002001549050919050565b600260205280600052604060002060009150905080600001805461182990612513565b80601f016020809104026020016040519081016040528092919081815260200182805461185590612513565b80156118a25780601f10611877576101008083540402835291602001916118a2565b820191906000526020600020905b81548152906001019060200180831161188557829003601f168201915b5050505050908060010180546118b790612513565b80601f01602080910402602001604051908101604052809291908181526020018280546118e390612513565b80156119305780601f1061190557610100808354040283529160200191611930565b820191906000526020600020905b81548152906001019060200180831161191357829003601f168201915b5050505050908060020160009054906101000a900473ffffffffffffffffffffffffffffffffffffffff16908060030154908060040154908060050154908060080160009054906101000a900460ff169080600901805461199090612513565b80601f01602080910402602001604051908101604052809291908181526020018280546119bc90612513565b8015611a095780601f106119de57610100808354040283529160200191611a09565b820191906000526020600020905b8154815290600101906020018083116119ec57829003601f168201915b5050505050905088565b6060600360008373ffffffffffffffffffffffffffffffffffffffff1673ffffffffffffffffffffffffffffffffffffffff168152602001908152602001600020805480602002602001604051908101604052809291908181526020018280548015611a9e57602002820191906000526020600020905b815481526020019060010190808311611a8a575b50505050509050919050565b600080600090505b8351811015611b07578280519060200120848281518110611ad657611ad5612bae565b5b60200260200101518051906020012003611af4576001915050611b0d565b8080611aff90612b66565b915050611ab2565b50600090505b92915050565b606060008203611b5a576040518060400160405280600181526020017f30000000000000000000000000000000000000000000000000000000000000008152509050611d2f565b60006064905060008167ffffffffffffffff811115611b7c57611b7b612813565b5b6040519080825280601f01601f191660200182016040528015611bae5781602001600182028036833780820191505090505b50905060005b60008514611c40576000600a86611bcb919061314e565b9050600a86611bda919061317f565b9550806030611be991906125df565b60f81b838380611bf890612b66565b945081518110611c0b57611c0a612bae565b5b60200101907effffffffffffffffffffffffffffffffffffffffffffffffffffffffffffff1916908160001a90535050611bb4565b60008167ffffffffffffffff811115611c5c57611c5b612813565b5b6040519080825280601f01601f191660200182016040528015611c8e5781602001600182028036833780820191505090505b50905060005b82811015611d26578360018285611cab91906126eb565b611cb591906126eb565b81518110611cc657611cc5612bae565b5b602001015160f81c60f81b828281518110611ce457611ce3612bae565b5b60200101907effffffffffffffffffffffffffffffffffffffffffffffffffffffffffffff1916908160001a9053508080611d1e90612b66565b915050611c94565b50809450505050505b919050565b6060600060018451611d4691906125df565b67ffffffffffffffff811115611d5f57611d5e612813565b5b604051908082528060200260200182016040528015611d9257816020015b6060815260200190600190039081611d7d5790505b50905060005b8451811015611ded57848181518110611db457611db3612bae565b5b6020026020010151828281518110611dcf57611dce612bae565b5b60200260200101819052508080611de590612b66565b915050611d98565b508281855181518110611e0357611e02612bae565b5b60200260200101819052508091505092915050565b828054828255906000526020600020908101928215611e91579160200282015b82811115611e905782518260006101000a81548173ffffffffffffffffffffffffffffffffffffffff021916908373ffffffffffffffffffffffffffffffffffffffff16021790555091602001919060010190611e38565b5b509050611e9e9190611ea2565b5090565b5b80821115611ebb576000816000905550600101611ea3565b5090565b600080fd5b600080fd5b6000819050919050565b611edc81611ec9565b8114611ee757600080fd5b50565b600081359050611ef981611ed3565b92915050565b600060208284031215611f1557611f14611ebf565b5b6000611f2384828501611eea565b91505092915050565b600073ffffffffffffffffffffffffffffffffffffffff82169050919050565b6000611f5782611f2c565b9050919050565b611f6781611f4c565b8114611f7257600080fd5b50565b600081359050611f8481611f5e565b92915050565b600060208284031215611fa057611f9f611ebf565b5b6000611fae84828501611f75565b91505092915050565b600081519050919050565b600082825260208201905092915050565b6000819050602082019050919050565b611fec81611ec9565b82525050565b6000611ffe8383611fe3565b60208301905092915050565b6000602082019050919050565b600061202282611fb7565b61202c8185611fc2565b935061203783611fd3565b8060005b8381101561206857815161204f8882611ff2565b975061205a8361200a565b92505060018101905061203b565b5085935050505092915050565b6000602082019050818103600083015261208f8184612017565b905092915050565b600080fd5b600080fd5b600080fd5b60008083601f8401126120bc576120bb612097565b5b8235905067ffffffffffffffff8111156120d9576120d861209c565b5b6020830191508360018202830111156120f5576120f46120a1565b5b9250929050565b600080600080600080600080600060c08a8c03121561211e5761211d611ebf565b5b60008a013567ffffffffffffffff81111561213c5761213b611ec4565b5b6121488c828d016120a6565b9950995050602061215b8c828d01611eea565b975050604061216c8c828d01611eea565b965050606061217d8c828d01611eea565b95505060808a013567ffffffffffffffff81111561219e5761219d611ec4565b5b6121aa8c828d016120a6565b945094505060a08a013567ffffffffffffffff8111156121cd576121cc611ec4565b5b6121d98c828d016120a6565b92509250509295985092959850929598565b6121f481611ec9565b82525050565b600060208201905061220f60008301846121eb565b92915050565b6000806040838503121561222c5761222b611ebf565b5b600061223a85828601611eea565b925050602061224b85828601611f75565b9150509250929050565b600081519050919050565b600082825260208201905092915050565b60005b8381101561228f578082015181840152602081019050612274565b60008484015250505050565b6000601f19601f8301169050919050565b60006122b782612255565b6122c18185612260565b93506122d1818560208601612271565b6122da8161229b565b840191505092915050565b6122ee81611f4c565b82525050565b600081519050919050565b600082825260208201905092915050565b6000819050602082019050919050565b61232981611f4c565b82525050565b600061233b8383612320565b60208301905092915050565b6000602082019050919050565b600061235f826122f4565b61236981856122ff565b935061237483612310565b8060005b838110156123a557815161238c888261232f565b975061239783612347565b925050600181019050612378565b5085935050505092915050565b600060e08201905081810360008301526123cc818a6122ac565b905081810360208301526123e081896122ac565b90506123ef60408301886122e5565b6123fc60608301876121eb565b61240960808301866121eb565b61241660a08301856121eb565b81810360c08301526124288184612354565b905098975050505050505050565b60008115159050919050565b61244b81612436565b82525050565b600061010082019050818103600083015261246c818b6122ac565b90508181036020830152612480818a6122ac565b905061248f60408301896122e5565b61249c60608301886121eb565b6124a960808301876121eb565b6124b660a08301866121eb565b6124c360c0830185612442565b81810360e08301526124d581846122ac565b90509998505050505050505050565b7f4e487b7100000000000000000000000000000000000000000000000000000000600052602260045260246000fd5b6000600282049050600182168061252b57607f821691505b60208210810361253e5761253d6124e4565b5b50919050565b7f414c524541445920504149440000000000000000000000000000000000000000600082015250565b600061257a600c83612260565b915061258582612544565b602082019050919050565b600060208201905081810360008301526125a98161256d565b9050919050565b7f4e487b7100000000000000000000000000000000000000000000000000000000600052601160045260246000fd5b60006125ea82611ec9565b91506125f583611ec9565b925082820190508082111561260d5761260c6125b0565b5b92915050565b7f544f4f204541524c590000000000000000000000000000000000000000000000600082015250565b6000612649600983612260565b915061265482612613565b602082019050919050565b600060208201905081810360008301526126788161263c565b9050919050565b7f4d555354204245204556454e54204f574e455200000000000000000000000000600082015250565b60006126b5601383612260565b91506126c08261267f565b602082019050919050565b600060208201905081810360008301526126e4816126a8565b9050919050565b60006126f682611ec9565b915061270183611ec9565b9250828203905081811115612719576127186125b0565b5b92915050565b600061272a82611ec9565b915061273583611ec9565b925082820261274381611ec9565b9150828204841483151761275a576127596125b0565b5b5092915050565b600081905092915050565b50565b600061277c600083612761565b91506127878261276c565b600082019050919050565b600061279d8261276f565b9150819050919050565b7f4661696c656420746f2073656e64204574686572000000000000000000000000600082015250565b60006127dd601483612260565b91506127e8826127a7565b602082019050919050565b6000602082019050818103600083015261280c816127d0565b9050919050565b7f4e487b7100000000000000000000000000000000000000000000000000000000600052604160045260246000fd5b60008190508160005260206000209050919050565b60006020601f8301049050919050565b600082821b905092915050565b6000600883026128a47fffffffffffffffffffffffffffffffffffffffffffffffffffffffffffffffff82612867565b6128ae8683612867565b95508019841693508086168417925050509392505050565b6000819050919050565b60006128eb6128e66128e184611ec9565b6128c6565b611ec9565b9050919050565b6000819050919050565b612905836128d0565b612919612911826128f2565b848454612874565b825550505050565b600090565b61292e612921565b6129398184846128fc565b505050565b5b8181101561295d57612952600082612926565b60018101905061293f565b5050565b601f8211156129a25761297381612842565b61297c84612857565b8101602085101561298b578190505b61299f61299785612857565b83018261293e565b50505b505050565b600082821c905092915050565b60006129c5600019846008026129a7565b1980831691505092915050565b60006129de83836129b4565b9150826002028217905092915050565b6129f782612255565b67ffffffffffffffff811115612a1057612a0f612813565b5b612a1a8254612513565b612a25828285612961565b600060209050601f831160018114612a585760008415612a46578287015190505b612a5085826129d2565b865550612ab8565b601f198416612a6686612842565b60005b82811015612a8e57848901518255600182019150602085019450602081019050612a69565b86831015612aab5784890151612aa7601f8916826129b4565b8355505b6001600288020188555050505b505050505050565b82818337600083830152505050565b6000612adb8385612260565b9350612ae8838584612ac0565b612af18361229b565b840190509392505050565b600060c082019050612b11600083018a6121eb565b612b1e60208301896122e5565b612b2b60408301886121eb565b612b3860608301876121eb565b612b4560808301866121eb565b81810360a0830152612b58818486612acf565b905098975050505050505050565b6000612b7182611ec9565b91507fffffffffffffffffffffffffffffffffffffffffffffffffffffffffffffffff8203612ba357612ba26125b0565b5b600182019050919050565b7f4e487b7100000000000000000000000000000000000000000000000000000000600052603260045260246000fd5b600081905092915050565b60008154612bf581612513565b612bff8186612bdd565b94506001821660008114612c1a5760018114612c2f57612c62565b60ff1983168652811515820286019350612c62565b612c3885612842565b60005b83811015612c5a57815481890152600182019150602081019050612c3b565b838801955050505b50505092915050565b7f2d00000000000000000000000000000000000000000000000000000000000000600082015250565b6000612ca1600183612bdd565b9150612cac82612c6b565b600182019050919050565b6000612cc282612255565b612ccc8185612bdd565b9350612cdc818560208601612271565b80840191505092915050565b6000612cf48287612be8565b9150612cff82612c94565b9150612d0b8286612be8565b9150612d1682612c94565b9150612d228285612cb7565b9150612d2d82612c94565b9150612d398284612cb7565b915081905095945050505050565b600060ff82169050919050565b6000612d5f82612d47565b915060ff8203612d7257612d716125b0565b5b600182019050919050565b600081519050919050565b600082825260208201905092915050565b6000819050602082019050919050565b600082825260208201905092915050565b6000612dc582612255565b612dcf8185612da9565b9350612ddf818560208601612271565b612de88161229b565b840191505092915050565b6000612dff8383612dba565b905092915050565b6000602082019050919050565b6000612e1f82612d7d565b612e298185612d88565b935083602082028501612e3b85612d99565b8060005b85811015612e775784840389528151612e588582612df3565b9450612e6383612e07565b925060208a01995050600181019050612e3f565b50829750879550505050505092915050565b60006020820190508181036000830152612ea38184612e14565b905092915050565b7f4e4f205253565020544f20434f4e4649524d0000000000000000000000000000600082015250565b6000612ee1601283612260565b9150612eec82612eab565b602082019050919050565b60006020820190508181036000830152612f1081612ed4565b9050919050565b7f4e487b7100000000000000000000000000000000000000000000000000000000600052603160045260246000fd5b6000604082019050612f5b60008301856121eb565b612f6860208301846122e5565b9392505050565b7f4e4f5420454e4f55474800000000000000000000000000000000000000000000600082015250565b6000612fa5600a83612260565b9150612fb082612f6f565b602082019050919050565b60006020820190508181036000830152612fd481612f98565b9050919050565b7f414c52454144592048415050454e454400000000000000000000000000000000600082015250565b6000613011601083612260565b915061301c82612fdb565b602082019050919050565b6000602082019050818103600083015261304081613004565b9050919050565b7f54686973206576656e7420686173207265616368656420636170616369747900600082015250565b600061307d601f83612260565b915061308882613047565b602082019050919050565b600060208201905081810360008301526130ac81613070565b9050919050565b7f414c524541445920434f4e4649524d4544000000000000000000000000000000600082015250565b60006130e9601183612260565b91506130f4826130b3565b602082019050919050565b60006020820190508181036000830152613118816130dc565b9050919050565b7f4e487b7100000000000000000000000000000000000000000000000000000000600052601260045260246000fd5b600061315982611ec9565b915061316483611ec9565b9250826131745761317361311f565b5b828206905092915050565b600061318a82611ec9565b915061319583611ec9565b9250826131a5576131a461311f565b5b82820490509291505056fea2646970667358221220be7642d223906eb42a7a3b6b68f9fe5517e01a10e475d093106ecb7920a5d07064736f6c63430008130033",
  "linkReferences": {},
  "deployedLinkReferences": {}
}